:1000000045C0000061C000005FC000005DC000008E
:100010005BC0000059C0000057C0000055C0000080
:1000200053C0000051C000004FC000004DC0000090
:100030004BC0000049C0000047C0000045C00000A0
:100040006DC5000041C000003FC000003DC0000081
:100050003BC0000039C0000037C0000035C00000C0
:1000600033C0000031C000002FC000002DC00000D0
:100070002BC0000029C0000027C0000025C00000E0
:1000800023C0000021C000001FC0000011241FBEBB
:10009000CFEFD0E1DEBFCDBF15E0A0E0B1E0ECE1F5
:1000A000F3E100E00BBF02C007900D92A239B10747
:1000B000D9F727E0A2E9B5E001C01D92AD32B20741
:1000C000E1F784D50C948C099BCF8FEF84BB85BB63
:1000D0000895982F907F95BBAA9AAA9820E1829FB5
:1000E000C001112485BBAA9AAA9880E49FE10197D8
:1000F000F1F70895982F907F916095BBAA9AAA98DE
:1001000020E1829FC0011124816085BBAA9AAA9830
:1001100080E49FE10197F1F70895662319F06130BB
:1001200021F008958058D5CF08958054D2CF0895F6
:100130000F931F93CF93DF93042F152FEEDFC02F64
:10014000D12F8991D7DF88818111FBCFDF91CF91AA
:100150001F910F910895B9DF80ED97E020E931E01C
:10016000F9013197F1F70197D9F780E699E0019706
:10017000F1F788E2AEDF80ED97E020E931E0F901A8
:100180003197F1F70197D9F788E2A3DF80ED97E087
:1001900020E931E0F9013197F1F70197D9F78CE0C7
:1001A00098DF86E096DF82E094DF81E092DF81E0F5
:1001B00090CF089581E08DDF80E49CE90197F1F70D
:1001C000089520E030E07BEF6DEF5EEF4AE121150E
:1001D000310511F452BB09C02130310511F462BB65
:1001E00004C02230310509F472BB842F8A95F1F7DF
:1001F00080B390E080959095807F9927009721F0BB
:1002000022B32F70822B08952F5F3F4F233031058B
:10021000F1F680E090E0089580E48FBD89E08EBD26
:100220008FEF87BB8ABB8BBB9FE091BB82BB8AE60B
:100230008A95F1F70895CF93DF93CDB7DEB7649732
:100240000FB6F894DEBF0FBECDBF23E1E0E2F4E0CD
:10025000DE01119601900D922A95E1F71C8A8E31EC
:10026000910549F48FEF8A83AE014F5F5F4F61E0E4
:1002700080E05EDF56C08E32910549F48FEF8C83AB
:10028000AE014F5F5F4F61E080E052DF4AC08E34C5
:10029000910549F48FEF8E83AE014F5F5F4F61E0B0
:1002A00080E046DF3EC08D31910549F48FEF8887AD
:1002B000AE014F5F5F4F61E080E03ADF32C08D32C8
:1002C000910549F48FEF8A87AE014F5F5F4F61E080
:1002D00080E02EDF26C08D34910549F48FEF8C87A6
:1002E000AE014F5F5F4F61E080E022DF1AC04B97A5
:1002F00049F48FEF8E87AE014F5F5F4F61E080E082
:1003000017DF0FC083E1E0E2F4E0DE011196019017
:100310000D928A95E1F7AE014F5F5F4F61E080E09B
:1003200007DF64960FB6F894DEBF0FBECDBFDF9136
:10033000CF9108958E31910551F48EE190E07BDFED
:100340008BEB97E79BBD8ABD8EEF8BBB08958E32FA
:10035000910551F48EE290E06EDF87EA9AE69BBD4C
:100360008ABD8DEF8BBB08958E34910551F48EE4D8
:1003700090E061DF8CEF9EE59BBD8ABD8BEF8BBB70
:1003800008958D31910551F48DE190E054DF8AE8B4
:1003900099E59BBD8ABD87EF8BBB08958D32910592
:1003A00051F48DE290E047DF8CEE9FE49BBD8ABD67
:1003B0008FEE8BBB08958D34910551F48DE490E060
:1003C0003ADF85E097E49BBD8ABD8FED8BBB089536
:1003D0008B31910551F48BE190E02DDF83E69FE3B3
:1003E0009BBD8ABD8FEB8BBB089525DF1BBC1ABC60
:1003F0008FEF8BBB08952F923F924F925F926F9237
:100400007F928F929F92AF92BF92CF92DF92EF92A4
:10041000FF920F931F93CF93DF9399230CF45FC246
:100420006C01E42EF52EC62FD72F00E010E00F2E22
:10043000F0E92F2E33243394F02DF701819191911F
:100440007F018E31910509F046C085E091E0F3DE31
:100450008BEB97E79BBD8ABD8EEF8BBB6A817B815F
:10046000072E000C880B990B02D62B013C0120E0D3
:1004700030E04AE755E487D64B015C0120E030E0EC
:1004800040E85FE3C2D5882304F120E03FEF4FE767
:1004900057E4C501B40173D618169CF420E030E08F
:1004A00040E251E4C301B2016ED6B3D561157105C6
:1004B00009F40EC2C1010197F1F761507109D1F73A
:1004C00007C2C501B401A5D502C061E070E0CB014F
:1004D0000197F1F7FDC18E32910509F046C085E222
:1004E00091E0A9DEE7EAFAE6FBBDEABD8DEF8BBB42
:1004F0006A817B81072E000C880B990BB8D52B01E4
:100500003C0120E030E04AE755E43DD64B015C0178
:1005100020E030E040E85FE378D5882304F120E074
:100520003FEF4FE757E4C501B40129D618169CF4F4
:1005300020E030E040E251E4C301B20124D669D5A5
:100540006115710509F4C4C1C1010197F1F761504A
:100550007109D1F7BDC1C501B4015BD502C061E02D
:1005600070E0CB010197F1F7B3C18E34910509F02A
:1005700046C089E491E05FDE8CEF9EE59BBD8ABDBD
:100580008BEF8BBB6A817B81072E000C880B990B4C
:100590006ED52B013C0120E030E04AE755E4F3D56D
:1005A0004B015C0120E030E040E85FE32ED588237A
:1005B00004F120E03FEF4FE757E4C501B401DFD578
:1005C00018169CF420E030E040E251E4C301B2018F
:1005D000DAD51FD56115710509F47AC1C1010197FA
:1005E000F1F761507109D1F773C1C501B40111D59B
:1005F00002C061E070E0CB010197F1F769C18D3174
:10060000910509F046C08DE591E015DEEAE8F9E5CF
:10061000FBBDEABD87EF8BBB6A817B81072E000C97
:10062000880B990B24D52B013C0120E030E04AE7F0
:1006300055E4A9D54B015C0120E030E040E85FE3E0
:10064000E4D4882304F120E03FEF4FE757E4C501ED
:10065000B40195D518169CF420E030E040E251E456
:10066000C301B20190D5D5D46115710509F430C12B
:10067000C1010197F1F761507109D1F729C1C50195
:10068000B401C7D402C061E070E0CB010197F1F77B
:100690001FC18D32910509F046C087E891E0CBDD9E
:1006A0008CEE9FE49BBD8ABD8FEE8BBB6A817B8104
:1006B000072E000C880B990BDAD42B013C0120E0AB
:1006C00030E04AE755E45FD54B015C0120E030E0C3
:1006D00040E85FE39AD4882304F120E03FEF4FE73E
:1006E00057E4C501B4014BD518169CF420E030E066
:1006F00040E251E4C301B20146D58BD461157105C6
:1007000009F4E6C0C1010197F1F761507109D1F711
:10071000DFC0C501B4017DD402C061E070E0CB014F
:100720000197F1F7D5C08D34910509F046C088EBEB
:1007300091E081DDE5E0F7E4FBBDEABDFFEDFBBB49
:100740006A817B81072E000C880B990B90D42B01BA
:100750003C0120E030E04AE755E415D54B015C014F
:1007600020E030E040E85FE350D4882304F120E04B
:100770003FEF4FE757E4C501B40101D518169CF4CB
:1007800020E030E040E251E4C301B201FCD441D4A6
:100790006115710509F49CC0C1010197F1F7615021
:1007A0007109D1F795C0C501B40133D402C061E02D
:1007B00070E0CB010197F1F78BC04B9709F046C071
:1007C0008DEE91E038DD83E69FE39BBD8ABD9FEB14
:1007D0009BBB6A817B81072E000C880B990B47D449
:1007E0002B013C0120E030E04AE755E4CCD44B013A
:1007F0005C0120E030E040E85FE307D4882304F1A7
:1008000020E03FEF4FE757E4C501B401B8D4181614
:100810009CF420E030E040E251E4C301B201B3D4E3
:10082000F8D36115710509F453C0C1010197F1F7BF
:1008300061507109D1F74CC0C501B401EAD302C0BF
:1008400061E070E0CB010197F1F742C080E090E0F9
:10085000F2DC1BBC1ABCEFEFEBBB6A817B81072E7D
:10086000000C880B990B03D42B013C0120E030E0F5
:100870004AE755E488D44B015C0120E030E040E8D1
:100880005FE3C3D38823FCF020E03FEF4FE757E45A
:10089000C501B40174D4181694F420E030E040E2AD
:1008A00051E4C301B2016FD4B4D36115710581F075
:1008B000C1010197F1F761507109D1F709C0C50174
:1008C000B401A7D302C061E070E0CB010197F1F75A
:1008D0000F5F1F4F2296C016D1060CF0AECDDF91F0
:1008E000CF911F910F91FF90EF90DF90CF90BF902D
:1008F000AF909F908F907F906F905F904F903F90C0
:100900002F900895CF93DF93442329F1EB01AC019D
:100910008EE0E4E3F4E0DA0101900D928A95E1F7CC
:1009200060E080E005DC8DE0E2E4F4E0DE010190CF
:100930000D928A95E1F7AE0161E080E0F9DB85E197
:10094000EFE4F4E0DE0101900D928A95E1F7AE014B
:1009500061E080E0EDDBDF91CF9108950F931F936D
:10096000CF93DF93EC018B01442349F18FE0E4E660
:10097000F4E0DE0101900D928A95E1F7AE0160E0AE
:1009800080E0D6DB8EE0E3E7F4E0D80101900D9241
:100990008A95E1F7A80161E080E0CADB81E1E1E846
:1009A000F4E0DE0101900D928A95E1F7AE0160E07E
:1009B00080E0BEDBA80161E080E0BADB18C085E121
:1009C000EFE4F4E0DE0101900D928A95E1F7AE01CB
:1009D00060E080E0ADDB85E1EFE4F4E0D801019078
:1009E0000D928A95E1F7A80161E080E0A1DBDF913B
:1009F000CF911F910F9108952F923F924F925F9246
:100A00006F927F928F929F92AF92BF92CF92DF921E
:100A1000EF92FF920F931F93CF93DF9399230CF4E0
:100A200066C01C01E42EF52E062F172FC0E0D0E083
:100A30000F2EF0E9CF2EDD24D394F02DF701219174
:100A400031917F012115310519F41BBC1ABC0BC073
:100A5000032E000C440B550B60E072E18AE790E036
:100A60001DD43BBD2ABDFDEFFBBBF8016191719127
:100A70008F01072E000C880B990BF9D22B013C013A
:100A800020E030E04AE755E47ED34B015C0120E0F2
:100A900030E040E85FE3B9D28823FCF020E03FEF8C
:100AA0004FE757E4C501B4016AD3181694F420E067
:100AB00030E040E251E4C301B20165D3AAD261152E
:100AC000710581F0C6010197F1F761507109D1F705
:100AD00009C0C501B4019DD202C061E070E0CB0144
:100AE0000197F1F721962C163D060CF0A7CF1BBC01
:100AF0001ABC8FEF8BBBDF91CF911F910F91FF90AD
:100B0000EF90DF90CF90BF90AF909F908F907F90AD
:100B10006F905F904F903F902F9008951F920F928B
:100B20000FB60F9211242F933F938F939F93809131
:100B30002B0790912C07019690932C0780932B07FD
:100B400020912807222351F02091290730912A076C
:100B50002F5F3F4F30932A072093290720912607C4
:100B6000309127072430310524F010922707109286
:100B7000260720912407309125072430310524F0E1
:100B80001092250710922407893E9340B0F080917F
:100B900026079091270701969093270780932607B1
:100BA00080912407909125070196909325078093C3
:100BB000240710922C0710922B079F918F913F9141
:100BC0002F910F900FBE0F901F901895CF93DF932A
:100BD000CDB7DEB7A9970FB6F894DEBF0FBECDBF75
:100BE000BADAE8DA19DB84E1E0E5F4E0DE01119637
:100BF00001900D928A95E1F784E1E0E5F4E0DE01F1
:100C0000559601900D928A95E1F786E082BF81E0CA
:100C100087BF84E083BF7894A12CB12CC12CD12C48
:100C20003324339481E089A72224239455245394B8
:100C300066246394E12CF12C712C4424439402C06B
:100C4000542C672CBEDA8C018B34910511F4E0949E
:100C5000F094E114F10409F4CEC1462DBE016B5E9F
:100C60007F4FCE0101964EDEC114D104F1F40B3258
:100C7000110531F4332029F0CC24C394D12C01C0C8
:100C8000342C87E1E2E9F4E0DE01119601900D9247
:100C90008A95E1F7AE014F5F5F4F672D872D48DAE8
:100CA000C80148DB542C672CCDCF81E0C816D10495
:100CB00009F086C0222041F010922C0710922B07D9
:100CC000109227071092260785E1E9EAF4E0DE0199
:100CD000119601900D928A95E1F7AE014F5F5F4F3B
:100CE000672D872D25DA8091260790912707009799
:100CF000B9F485E1EEEBF4E0DE01559601900D923A
:100D00008A95E1F70B32110509F048C04092280797
:100D100051DA6894CC24C1F8D12C79A6272C47C08D
:100D20008130910599F485E1E3EDF4E0DE0155961B
:100D300001900D928A95E1F70B32110589F50F2E7E
:100D4000F3E0CF2EF02DD12C272C31C0823091052D
:100D500091F485E1E8EEF4E0DE01559601900D9204
:100D60008A95E1F70B321105E9F46894CC24C2F8B6
:100D7000D12C242C1CC00397B9F485E1EDEFF4E0ED
:100D8000DE01559601900D928A95E1F70B3211051F
:100D900069F4C12CD12C372C272C09C0272C07C073
:100DA000272C05C0272C03C0272C01C0272CAE01FF
:100DB0004B5E5F4F642D872DBBD9542C672C42CFDF
:100DC00082E0C816D10409F075C084E1EEE7F5E0D1
:100DD000DE01119601900D928A95E1F70B32110513
:100DE00051F489A5882371F070922807CC24C3940C
:100DF000D12C242C07C00B34110511F449A602C0D4
:100E0000480149A68114910431F1A114B10409F0FB
:100E100046C080912207909123079C01220F331F27
:100E2000F901E65AF94F4091290750912A07518359
:100E30004083F901EE56FA4F1183008310922A077E
:100E40001092290701969093230780932207AA24E2
:100E5000A394B12C24C081E0A816B10401F58091BF
:100E60002207909123079C01220F331FF901E65AB4
:100E7000F94F4091290750912A0751834083F90186
:100E8000EE56FA4F1183008310922A071092290719
:100E900001969093230780932207A12CB12CC801BF
:100EA00049DAAE014F5F5F4F672D872D41D9542C32
:100EB000672CC8CE83E0C816D104F9F486E1E2E1DC
:100EC000F5E0DE01119601900D928A95E1F7AE01F1
:100ED0004F5F5F4F672D872D2BD942E955E06AE5BB
:100EE00076E0809122079091230785DACC24C39481
:100EF000D12C242C542C672CA5CE84E0C816D10408
:100F000009F09ECE87E1E8E2F5E0DE01119601905E
:100F10000D928A95E1F7AE014F5F5F4F672D872DE8
:100F200007D9222049F010922C0710922B0710921B
:100F300025071092240706C0809124079091250769
:100F40000097C1F485E1EFE3F5E0DE0155960190ED
:100F50000D928A95E1F70B32110509F042C040E984
:100F600052E060E071E088EC90E046DDCC24C39470
:100F7000D12C37C08130910581F485E1E4E5F5E0BD
:100F8000DE01559601900D928A95E1F70B3211051D
:100F900041F5CC24C394D12C24C08230910581F436
:100FA00085E1E9E6F5E0DE01559601900D928A951E
:100FB000E1F70B321105A9F4CC24C394D12C11C054
:100FC000039779F485E1EDEFF4E0DE0155960190A9
:100FD0000D928A95E1F70B32110519F4CC24C394D4
:100FE000D12CAE014B5E5F4F642D872DA1D8272CED
:100FF000542C672C27CE452DBE016B5E7F4FCE0152
:101000000196ACDC572C642C1DCE6CD008F481E02A
:10101000089594D088F09F5790F0B92F9927B75131
:10102000A0F0D1F0660F771F881F991F1AF0BA95AC
:10103000C9F712C0B13081F09BD0B1E0089598C0DB
:10104000672F782F8827B85F39F0B93FCCF38695A2
:1010500077956795B395D9F73EF4909580957095FF
:1010600061957F4F8F4F9F4F0895E89409C097FB7C
:101070003EF490958095709561957F4F8F4F9F4F6F
:101080009923A9F0F92F96E9BB279395F6958795B3
:1010900077956795B795F111F8CFFAF4BB0F11F476
:1010A00060FF1BC06F5F7F4F8F4F9F4F16C088231D
:1010B00011F096E911C0772321F09EE8872F762F53
:1010C00005C0662371F096E8862F70E060E02AF094
:1010D0009A95660F771F881FDAF7880F9695879580
:1010E00097F90895990F0008550FAA0BE0E8FEEF55
:1010F00016161706E807F907C0F012161306E407DC
:10110000F50798F0621B730B840B950B39F40A26D4
:1011100061F0232B242B252B21F408950A2609F4B2
:10112000A140A6958FEF811D811D089557FD905810
:10113000440F551F59F05F3F71F04795880F97FB9B
:10114000991F61F09F3F79F0879508951216130655
:101150001406551FF2CF4695F1DF08C01616170684
:101160001806991FF1CF86957105610508940895B9
:10117000E894BB2766277727CB0197F90895B2DF5C
:1011800008F48FEF08950BD078C069D028F06ED0A6
:1011900018F0952309F05AC05FC01124EACFC6DFCA
:1011A000A0F3959FD1F3950F50E0551F629FF0017A
:1011B000729FBB27F00DB11D639FAA27F00DB11DD3
:1011C000AA1F649F6627B00DA11D661F829F22275C
:1011D000B00DA11D621F739FB00DA11D621F839FE3
:1011E000A00D611D221F749F3327A00D611D231FB9
:1011F000849F600D211D822F762F6A2F11249F5707
:1012000050408AF0E1F088234AF0EE0FFF1FBB1F29
:10121000661F771F881F91505040A9F79E3F5105C8
:1012200070F014C0A6CF5F3FECF3983EDCF38695D8
:1012300077956795B795F795E7959F5FC1F7FE2B73
:10124000880F911D9695879597F9089597F99F674F
:1012500080E870E060E008959FEF80EC089500243E
:101260000A941616170618060906089500240A940B
:1012700012161306140605060895092E0394000C91
:1012800011F4882352F0BB0F40F4BF2B11F460FF20
:1012900004C06F5F7F4F8F4F9F4F0895052E97FBC0
:1012A00016F400940FD057FD05D014D007FC02D0DF
:1012B00046F408C050954095309521953F4F4F4FCB
:1012C0005F4F089590958095709561957F4F8F4FF2
:1012D0009F4F0895A1E21A2EAA1BBB1BFD010DC052
:1012E000AA1FBB1FEE1FFF1FA217B307E407F507D6
:1012F00020F0A21BB30BE40BF50B661F771F881FB2
:10130000991F1A9469F760957095809590959B0147
:0C131000AC01BD01CF010895F894FFCF9F
:10131C000000FA00FA00E1001900C2013200C2011B
:10132C003200E80384036400FA00FA00FA00E100DA
:10133C001900C2013200C2013200E803E803FA00CE
:10134C00FA00FA00E1001900C2013200C2013200B9
:10135C00E803C2013200C20132002C0121002C0131
:10136C0021002C012100D007C2013200C201320041
:10137C00C2013200C2013200C2013200C20132008D
:10138C00E80384030000C2013200C2013200C20132
:10139C003200C2013200E803E803F401FA00E10074
:1013AC001900C2013200C2013200E8038403640058
:1013BC00C2013200C20132006C076400C20132006B
:1013CC00C2013200C2013200C2013200C20132003D
:1013DC00C2013200E803E803FA00FA00FA00FA004E
:1013EC003200C2013200C2013200E803E803FA0005
:1013FC00FA00FA00E1001900C2013200C201320009
:10140C00E803C2013200C20132002C0121002C0180
:10141C0021002C012100D007C2013200C201320090
:10142C00C2013200C2013200C2013200C2013200DC
:10143C00E80384030000C2013200C2013200C20181
:10144C003200C2013200E803E803F401FA00E100C3
:10145C001900C201320084036400C201320084030B
:10146C00640084036400D00700000000000000004A
:10147C000000000000000000000000000000000060
:10148C000000000000000000000000000000000050
:10149C000000000000000000000000000000000040
:1014AC00000087010B024B0200004B02000093026C
:1014BC00000093029302000000000B024B02930207
:1014CC0000004B0200000F0300000F030F0300008D
:1014DC000F037003DB030000DB03000016040000A5
:1014EC00160416040000960400002605000096045D
:1014FC00000016040000DB03DB03000016040000F0
:10150C00DB0300000F0300000F030000700300005A
:10151C007003700300000F030000BA020000BA024F
:10152C0000000F0300000F030F0300000B024B021F
:10153C00000093020000BA020000BA02BA020000D6
:10154C000F030000BA020000930200004B020000DF
:10155C00870100000B0200004B0200004B02000050
:10156C00930200009302930200000B024B029302C1
:10157C0000004B0200000F0300000F030F030000DC
:10158C000F037003DB030000DB03000016040000F4
:10159C0016041604000096040000260500009604AC
:1015AC00000016040000DB03DB030000160400003F
:1015BC00DB0300000F0300000F03000070030000AA
:1015CC007003700300000F030000BA020000BA029F
:1015DC0000000F0300000F030F0300000B024B026F
:1015EC00000093020000BA020000700300000B021E
:1015FC000000ED0100000B020000000000000000E4
:10160C0000000000000000000000000000000000CE
:10161C0000000000000000000000000000000000BE
:10162C0000000000000000000000000000000000AE
:10163C00202020202020202020202020202020209E
:10164C002020000020205049414E4F20535441523D
:10165C005400202020504F574552204F4E2100203F
:10166C00202020202020202020202020202020206E
:10167C002020200020205049414E4F2053595354D4
:10168C00454D00202020504F574552204F464621B3
:10169C000020202020474F4F442042594520202035
:1016AC00200020205049414E4F2053544152542089
:1016BC00202020202020202000202020204D2045EC
:1016CC00204E205520202020202020202000312EAC
:1016DC00205265636F7264696E6720202020202081
:1016EC00202000322E204C697374656E696E672061
:1016FC002020202020202000332E204578616D7082
:10170C006C652020202020202020202000342E203A
:10171C0052657475726E20202020202020202020FD
:10172C00200020204C697374656E696E672E2E2024
:10173C00202020202020200020202D204578616DA5
:10174C00706C65202D2020202020202020200031AE
:10175C002E204578616D706C652031202020202072
:10176C0020202000322E204578616D706C6520326F
:10177C00202020202020202000332E204578616D51
:10178C00706C652033202020202020202000202079
:10179C005265636F7264696E672E2E2020202020A4
:0217AC0020001B
:00000001FF
